:020000040000fa
:080000000002040000000000f2
:020000040000fa
:040008007003000081
:020000040000fa
:04000c00b20300003b
:020000040000fa
:0400100012040000d6
:020000040000fa
:040014009003000055
:020000040000fa
:04001800d20300000f
:020000040000fa
:04001c00f2030000eb
:020000040000fa
:0400200032040000a6
:020000040000fa
:040024005e04000076
:020000040000fa
:040028005e04000072
:020000040000fa
:04002c005e0400006e
:020000040000fa
:040030005e0400006a
:020000040000fa
:040034005e04000066
:020000040000fa
:040038005e04000062
:020000040000fa
:04003c005e0400005e
:020000040000fa
:040040005e0400005a
:020000040000fa
:040044005e04000056
:020000040000fa
:040048005e04000052
:020000040000fa
:04004c005e0400004e
:020000040000fa
:040050005e0400004a
:020000040000fa
:040054005e04000046
:020000040000fa
:040058005e04000042
:020000040000fa
:04005c00300300006d
:020000040000fa
:040060005e0400003a
:020000040000fa
:040064005e04000036
:020000040000fa
:040068005e04000032
:020000040000fa
:04006c005e0400002e
:020000040000fa
:040070005e0400002a
:020000040000fa
:040074000203000083
:020000040000fa
:040078005e04000022
:020000040000fa
:04007c005e0400001e
:020000040000fa
:040080005e0400001a
:020000040000fa
:040084005e04000016
:020000040000fa
:040088005e04000012
:020000040000fa
:04008c005e0400000e
:020000040000fa
:040090005e0400000a
:020000040000fa
:040094005e04000006
:020000040000fa
:040098005e04000002
:020000040000fa
:04009c005e040000fe
:020000040000fa
:0400a0005e040000fa
:020000040000fa
:0400a4005e040000f6
:020000040000fa
:0400a8005e040000f2
:020000040000fa
:0400ac005e040000ee
:020000040000fa
:0400b0005e040000ea
:020000040000fa
:0400b4005e040000e6
:020000040000fa
:0400b8005e040000e2
:020000040000fa
:0400bc005e040000de
:020000040000fa
:0400c0005e040000da
:020000040000fa
:0400c4005e040000d6
:020000040000fa
:0400c8005e040000d2
:020000040000fa
:0400cc005e040000ce
:020000040000fa
:0400d0005e040000ca
:020000040000fa
:0400d4005e040000c6
:020000040000fa
:0400d8005e040000c2
:020000040000fa
:0400dc005e040000be
:020000040000fa
:0400e0005e040000ba
:020000040000fa
:0400e4005e040000b6
:020000040000fa
:0400e8005e040000b2
:020000040000fa
:0400ec005e040000ae
:020000040000fa
:0400f0005e040000aa
:020000040000fa
:0400f4005e040000a6
:020000040000fa
:0400f8005e040000a2
:020000040000fa
:0400fc005e0400009e
:020000040000fa
:040100005e04000099
:020000040000fa
:040104005e04000095
:020000040000fa
:040108005e04000091
:020000040000fa
:04010c005e0400008d
:020000040000fa
:040110005e04000089
:020000040000fa
:040114005e04000085
:020000040000fa
:040118005e04000081
:020000040000fa
:04011c005e0400007d
:020000040000fa
:040120005e04000079
:020000040000fa
:040124005e04000075
:020000040000fa
:040128005e04000071
:020000040000fa
:04012c005e0400006d
:020000040000fa
:040130005e04000069
:020000040000fa
:040134005e04000065
:020000040000fa
:040138005e04000061
:020000040000fa
:04013c005e0400005d
:020000040000fa
:040140005e04000059
:020000040000fa
:040144005e04000055
:020000040000fa
:040148005e04000051
:020000040000fa
:04014c005e0400004d
:020000040000fa
:040150005e04000049
:020000040000fa
:040154005e04000045
:020000040000fa
:040158005e04000041
:020000040000fa
:04015c005e0400003d
:020000040000fa
:040160005e04000039
:020000040000fa
:040164005e04000035
:020000040000fa
:040168005e04000031
:020000040000fa
:04016c005e0400002d
:020000040000fa
:040170005e04000029
:020000040000fa
:040174005e04000025
:020000040000fa
:040178005e04000021
:020000040000fa
:04017c005e0400001d
:020000040000fa
:040180005e04000019
:020000040000fa
:040184005e04000015
:020000040000fa
:040188005e04000011
:020000040000fa
:04018c005e0400000d
:020000040000fa
:040190005e04000009
:020000040000fa
:040194005e04000005
:020000040000fa
:040198005e04000001
:020000040000fa
:04019c005e040000fd
:020000040000fa
:0401a0005e040000f9
:020000040000fa
:0401a4005e040000f5
:020000040000fa
:0401a8005e040000f1
:020000040000fa
:0401ac005e040000ed
:020000040000fa
:0401b0005e040000e9
:020000040000fa
:0401b4005e040000e5
:020000040000fa
:0401b8005e040000e1
:020000040000fa
:0401bc005e040000dd
:020000040000fa
:0401c0005e040000d9
:020000040000fa
:0401c4005e040000d5
:020000040000fa
:0401c8005e040000d1
:020000040000fa
:0401cc005e040000cd
:020000040000fa
:0401d0005e040000c9
:020000040000fa
:0401d4005e040000c5
:020000040000fa
:0401d8005e040000c1
:020000040000fa
:0401dc005e040000bd
:020000040000fa
:0401e0005e040000b9
:020000040000fa
:0401e4005e040000b5
:020000040000fa
:0401e8005e040000b1
:020000040000fa
:0401ec005e040000ad
:020000040000fa
:0401f0005e040000a9
:020000040000fa
:0401f4005e040000a5
:020000040000fa
:0401f8005e040000a1
:020000040000fa
:0401fc005e0400009d
:020000040000fa
:040200005e04000098
:020000040000fa
:040204005e04000094
:020000040000fa
:040208005e04000090
:020000040000fa
:04020c005e0400008c
:020000040000fa
:040210005e04000088
:020000040000fa
:040214005e04000084
:020000040000fa
:040218005e04000080
:020000040000fa
:04021c005e0400007c
:020000040000fa
:040220005e04000078
:020000040000fa
:040224005e04000074
:020000040000fa
:040228005e04000070
:020000040000fa
:04022c005e0400006c
:020000040000fa
:040230005e04000068
:020000040000fa
:040234005e04000064
:020000040000fa
:040238005e04000060
:020000040000fa
:04023c005e0400005c
:020000040000fa
:040240005e04000058
:020000040000fa
:040244005e04000054
:020000040000fa
:040248005e04000050
:020000040000fa
:04024c005e0400004c
:020000040000fa
:040250005e04000048
:020000040000fa
:040254005e04000044
:020000040000fa
:040258005e04000040
:020000040000fa
:04025c005e0400003c
:020000040000fa
:040260005e04000038
:020000040000fa
:040264005e04000034
:020000040000fa
:040268005e04000030
:020000040000fa
:04026c005e0400002c
:020000040000fa
:040270005e04000028
:020000040000fa
:040274005e04000024
:020000040000fa
:040278005e04000020
:020000040000fa
:04027c005e0400001c
:020000040000fa
:040280005e04000018
:020000040000fa
:100400006f0221000eff22000e0188000000000094
:10041000000020000000e000020032000001200087
:100420002002880014000700410107000000e000de
:1004300003003a0000922000010020000200370073
:100440000000200001002000810f70000100320038
:100450000f000700000020000000e0000200320052
:1004600000000200000000006e0902000000000011
:100470000040da000000fe00200020000000e00044
:1004800002003200100020009001880000000600e9
:10049000a1028800800478000000eb001f003700f4
:1004a000e284440054a0b4009905ba00e2844400f8
:1004b00054a0b4009906ba00e284440054a0b400e9
:1004c0000006eb00476fde00fd07b200ae018800ba
:1004d000636ce10003003a000ad801000000eb0061
:1004e0000e003700606ce10008003a00004deb00a0
:1004f0000a05e800020039003420ec000af0a000f0
:100500008b05e900f9ff3e00040037006168e10057
:10051000010032000086eb000b00070019c7ba008b
:100520000e04e0001905ba0003003a000a00e000da
:10053000dbff3a0000000600fe07b200ae028800b2
:100540008a047800f5ff37000cd0a300e20f4d00bd
:100550001c003b0089027800354dba000a05e8000e
:10056000020039003420ec000af0a0008b05e900fd
:100570000f003200254dba000a05e80002003900dc
:100580003420ec000af0a0008b05e90008003200de
:100590000c00e0000600320015cdba000a05e800a4
:1005a000020039003420ec000af0a0008b05e900bd
:1005b0008984e80054a0b4000b00e000e2ff3a0098
:1005c000000006009902ba00055d78008b05e9007d
:1005d000f7ff3200c82ade00055d78008b05e900d0
:1005e000f3ff32000c00e000f1ff320019ddba0029
:1005f000eeff3700000000000000000000000000d7
:10060000000000003600f800809fbe00829fbe0000
:10061000849fbe00869fbe000000fa00104080004c
:10062000680060000000e0000600320000808000ea
:100630000000e000020032000080800000000100a5
:100640000268a9000080fa004f03be004f02be00fe
:100650004f01be004f00be003600f900004006000a
:100660003600f800809fbe00829fbe00849fbe00bf
:10067000869fbe003200f8003400f8001000200011
:10068000a00188001000200000d0fe000000fa0049
:100690000140800000002200008060000000e000b7
:1006a00006003200108080000000e00002003200ee
:1006b000108080000000010001a8a9000080fa005d
:1006c0003400f9003200f9004f03be004f02be00b3
:1006d0004f01be004f00be003600f900004006008a
:1006e0003600f800809fbe00829fbe00849fbe003f
:1006f000869fbe000000fa00c028a9000000eb00a1
:10070000ea0207000080fa004f03be004f02be005d
:100710004f01be004f00be003600f9000040060049
:100720003600f800809fbe00829fbe00849fbe00fe
:10073000869fbe000000fa00e1020700c048a90041
:1007400010002000d90207000080fa004f03be000d
:100750004f02be004f01be004f00be003600f90040
:10076000004006003600f800809fbe00829fbe0059
:10077000849fbe00869fbe000000fa00c068a900ea
:1007800020002000c90207000080fa004f03be00cd
:100790004f02be004f01be004f00be003600f90000
:1007a000004006003600f800809fbe00829fbe0019
:1007b000849fbe00869fbe000000fa00c088a9008a
:1007c00030002000b90207000080fa004f03be008d
:1007d0004f02be004f01be004f00be003600f900c0
:1007e000004006003600f800809fbe00829fbe00d9
:1007f000849fbe00869fbe000000fa00c0a8a9002a
:1008000040002000a90207000080fa004f03be004c
:100810004f02be004f01be004f00be003600f9007f
:10082000004006003600f800809fbe00829fbe0098
:10083000849fbe00869fbe000000fa00c608a90083
:1008400070002000990207000080fa004f03be00ec
:100850004f02be004f01be004f00be003600f9003f
:10086000004006003600f800809fbe00829fbe0058
:10087000849fbe00869fbe000000fa0021468000d3
:1008800000022000008060000000e0000300320051
:10089000c4a8a90090002000840207002046800020
:1008a000700060000000e00003003200c488a9006e
:1008b000a00020007d020700ffff37000040da00a3
:1008c0000000fe000800fa008e81e8008009780030
:1008d00064004700010878006600470002087800bd
:1008e00066004700100f78000a00370064004700d8
:1008f0001000780010407800e40047009100780074
:100900000101e800e400470082087800ae0107001a
:100910001e0fe9001e0078000000e000f3ff3a001f
:1009200066004700100078000080fa000000060012
:0409300000000500be
:020000040000fa
:100934000000fa00003a80000080fa00000006007f
:100944000200fa00faff0700000f78001e0078008a
:10095400240007000004e000020032000000280028
:100964007d0007001e0078002c0007000004e00052
:100974000200320000002400770007001e00780007
:10098400360007000004e0000200320000202000ce
:10099400710007001e007800400007000004e0001a
:1009a40002003200000820006b0007001e007800df
:1009b4004a0007000004e0000200320000042000a6
:1009c400650007001e007800540007000004e000e2
:1009d40002003200000120005f0007000080fa00de
:1009e400000006000400fa008e80e8008008780009
:1009f4000040eb00004f78000e80e8001000780003
:100a04000000e00002003d0010c0b300004f780079
:100a14001e4078000080fa00000006000400fa007e
:100a24008e80e800800878000040eb00004f7800da
:100a34000e80e80090007800000024000080600030
:100a44000000e0000200320010c0b300004f780044
:100a54001e4078000080fa00000006000400fa003e
:100a64008e80e800800878000040eb00004f78009a
:100a74000e80e800900078000020200000806000d4
:100a84000000e0000200320010c0b300004f780004
:100a94001e4078000080fa00000006000400fa00fe
:100aa4008e80e800800878000040eb00004f78005a
:100ab4000e80e800900078000008200000806000ac
:100ac4000000e0000200320010c0b300004f7800c4
:100ad4001e4078000080fa00000006000400fa00be
:100ae4008e80e800800878000040eb00004f78001a
:100af4000e80e80090007800000420000080600070
:100b04000000e0000200320010c0b300004f780083
:100b14001e4078000080fa00000006000400fa007d
:100b24008e80e800800878000040eb00004f7800d9
:100b34000e80e80010007800700060000000e00003
:100b44000200320010c0b300004f78001e4078004d
:100b54000080fa00000006000200fa00000f78008e
:100b64001e80ea00013a800001006000003a88001b
:100b74000080fa00000006000000fa004027ef00a1
:100b84000080fa00000006000000fa004000200087
:100b940010608800042cef00062cef000a2cef00f4
:100ba4001a2cef001e2cef0040202000006188006a
:100bb400402020000062880040202000006388005c
:100bc40000302c00e3c1200011322400d2bc2a00e2
:100bd40082097800810978001061880000302c00b7
:100be400e3c1200011322400d2bc2a00820978001b
:100bf400810978001062880000302c00e3c12000d5
:100c040011322400d2bc2a008209780081097800bc
:100c140010638800b00f2000e3c1200011322400cb
:100c2400d2bc2a00820978008109780020618800fa
:100c3400b00f2000e3c1200011322400d2bc2a00ee
:100c4400820978008109780020628800b00f2000b2
:100c5400e3c1200011322400d2bc2a0082097800aa
:100c64008109780020638800262cef00462cef00d1
:100c7400662cef00282cef00482cef00682cef00c6
:100c8400f000200050618800f000200050628800cd
:100c9400f000200050638800f000200060618800ac
:100ca400f000200060628800f0002000606388008b
:100cb400322cef00522cef00722cef00342cef009a
:100cc400542cef00742cef003a2cef005a2cef0058
:100cd4007a2cef003c2cef005c2cef007c2cef0016
:100ce4003e2cef005e2cef007e2cef00001028005d
:100cf400006088000080fa00000006000000fa008e
:100d04000080fa00000006000000fa003140800074
:100d140000202000008060000000e000020032009b
:100d2400f6ff07000728a9000080fa00000006006b
:100d34000000fa000080fa00000006000000fa003b
:100d44003140800000202000008060000000e000ae
:100d540002003200f6ff07000bc8a9000080fa0069
:100d6400000006000000fa000080fa0000000600ff
:100d74000000fa0031408000002020000080600064
:100d84000000e00002003200f6ff07000be8a900b3
:100d94000080fa00000006000000fa000080fa005b
:100da400000006000000fa0031408000002020000e
:100db400008060000000e00002003200f6ff07003f
:100dc4000c08a9000080fa00000006000000fa00e8
:100dd400042eef00142eef00242eef00342eef002b
:100de400442eef00542eef00642eef0030f9210062
:100df40000708800f03f200080708800f0ff23001e
:100e040000718800001620008071880000002f0007
:100e1400007288003000200080728800003c2000ae
:100e2400007388000c2eef001c2eef002c2eef0018
:100e34003c2eef004c2eef005c2eef006c2eef00ea
:100e44000a2eef001a2eef002a2eef003a2eef00a2
:100e54004a2eef005a2eef006a2eef00062eef0006
:100e6400162eef00262eef00362eef00462eef0052
:100e7400562eef00662eef0030812100707088003e
:100e840030102000f070880030002000707188005d
:100e940000002b0070728800113a8000f00b2000d3
:100ea400008160006004200071052000237420008c
:100eb4008049780081497800824978002136800091
:100ec40000f82f0080806000e00520000100700021
:100ed40020368800103a8000000178000260a000eb
:100ee40060042000710520002374200080497800ec
:100ef400814978008249780028eea800290ea800cc
:100f0400292ea80000792000070007000268a90024
:100f14002268a8000080fa00000006000000fa0021
:100f24000080fa00000006000200fa00000f7800ba
:100f34002268a9009e007800018088002268a80029
:100f44000080fa00000006000200fa00000f78009a
:100f54001e007800f4ff07000080fa00000006007d
:100f64000000fa0080002000001188002222ef0017
:100f7400600520004011880021e2a8002342a80057
:100f84000080fa00000006000000fa0000000000e3
:100f940010118000610060000000e000fcff3200de
:100fa40010118000620060000000e00001003200c7
:100fb4002222a90030118000004078000080fa004d
:100fc400000006000200fa00004f78000000000054
:100fd4001111800000202000008060000000e0006b
:100fe400fbff3a001e80fb00201188000080fa00fd
:100ff400000006000000fa00101180000040780094
:10100400614060000080fb0000f0a7000000ea00df
:101014000000ea004f00de00004078000080fa0083
:10102400000006000000fa001111800000202000da
:10103400008060000000e00007003a001111800009
:1010440000402000008060000000e0000200320048
:1010540010002000010037000000eb000040780081
:101064000080fa00000006000000fa001011800061
:101074004800de00614060000080fb0000f0a70033
:101084000000ea000000ea004f00de0000407800a3
:101094000080fa00000006000000fa001011800031
:1010a4000080fa00000006000000fa0021e2a80017
:1010b4002342a8000080fa00000006000000fa00a5
:1010c40021e2a9002342a9000080fa0000000600e2
:1010d4000000fa0000142300203a88004827ef009b
:1010e4004e27ef00e0042000303a88006027ef002c
:1010f4006227ef006427ef006627ef006a27ef00fe
:101104006c27ef003200200080072000a109200096
:10111400337420008049780081497800824978003e
:1011240012002000600420007105200023742000b8
:1011340080497800814978008249780000000000e5
:10114400103a8000610060000000e000fcff3a00fb
:1011540000000000113a80000002200000806000be
:101164000000e000fbff32000080fa0000000600ef
:101174000200fa00000f780021028000200f2000f6
:10118400008060001e007000200288000080fa00c9
:10119400000006000000fa00c3e8a80000000000f8
:1011a400000000000080fa00000006000000fa00c1
:1011b40006ff07002f000700c5ff070068ff0700b0
:1011c4000600070070fe0700f2ff0700000220007f
:1011d400e7ff07000080fa00000006000000fa00a4
:1011e40000402800001988002223ef002423ef0088
:1011f4002823ef002e23ef003023ef003223ef00eb
:101204002623ef00e09020000600070021a8a80094
:101214000080fa00000006000000fa000080fa00d6
:10122400000006000200fa00000f78001e0078009b
:0c123400108088000080fa000000060016
:020000040000fa
:1012400000100000020000008000000002100000fa
:1012500002000000800000000610000020000000d6
:101260008000000004100000020000008200000066
:08127000ffff00000000000078
:020000040000fa
:101278000000fa0041428000f0ff28000080600072
:1012880000c0a0004042880031428000f0f82f00e2
:10129800008060000040a000304288000080fa0012
:1012a800000006000200fa00000f78009e00780097
:1012b80021808800ffff37000000fa00600021004d
:1012c80080077800e0012100000188000080fa0012
:1012d800000006000000fa00b3ff0700ffff370018
:020000040000fa
:020000040001f9
:045fe000cfff0000ef
:020000040000fa
:020000040001f9
:045fe400ffff0000bb
:020000040000fa
:020000040001f9
:045fe8007fff000037
:020000040000fa
:020000040001f9
:045fec0079ff000039
:020000040000fa
:020000040001f9
:045ff00078ff000036
:020000040000fa
:020000040001f9
:045ff400ffffff00ac
:00000001FF
